{
  "_format": "hh-sol-artifact-1",
  "contractName": "ArcanaDAO",
  "sourceName": "contracts/ArcanaDAO.sol",
  "abi": [
    {
      "inputs": [
        {
          "internalType": "address",
          "name": "_tokenAddress",
          "type": "address"
        }
      ],
      "stateMutability": "nonpayable",
      "type": "constructor"
    },
    {
      "inputs": [
        {
          "internalType": "address",
          "name": "owner",
          "type": "address"
        }
      ],
      "name": "OwnableInvalidOwner",
      "type": "error"
    },
    {
      "inputs": [
        {
          "internalType": "address",
          "name": "account",
          "type": "address"
        }
      ],
      "name": "OwnableUnauthorizedAccount",
      "type": "error"
    },
    {
      "anonymous": false,
      "inputs": [
        {
          "indexed": true,
          "internalType": "address",
          "name": "previousOwner",
          "type": "address"
        },
        {
          "indexed": true,
          "internalType": "address",
          "name": "newOwner",
          "type": "address"
        }
      ],
      "name": "OwnershipTransferred",
      "type": "event"
    },
    {
      "anonymous": false,
      "inputs": [
        {
          "indexed": true,
          "internalType": "uint256",
          "name": "proposalId",
          "type": "uint256"
        },
        {
          "indexed": false,
          "internalType": "string",
          "name": "title",
          "type": "string"
        },
        {
          "indexed": true,
          "internalType": "address",
          "name": "creator",
          "type": "address"
        }
      ],
      "name": "ProposalCreated",
      "type": "event"
    },
    {
      "anonymous": false,
      "inputs": [
        {
          "indexed": true,
          "internalType": "uint256",
          "name": "proposalId",
          "type": "uint256"
        }
      ],
      "name": "ProposalExecuted",
      "type": "event"
    },
    {
      "anonymous": false,
      "inputs": [
        {
          "indexed": true,
          "internalType": "uint256",
          "name": "proposalId",
          "type": "uint256"
        },
        {
          "indexed": true,
          "internalType": "address",
          "name": "voter",
          "type": "address"
        },
        {
          "indexed": false,
          "internalType": "uint8",
          "name": "choice",
          "type": "uint8"
        },
        {
          "indexed": false,
          "internalType": "uint256",
          "name": "tokensSpent",
          "type": "uint256"
        }
      ],
      "name": "VoteCast",
      "type": "event"
    },
    {
      "inputs": [
        {
          "internalType": "uint256",
          "name": "_votes",
          "type": "uint256"
        }
      ],
      "name": "calculateVoteCost",
      "outputs": [
        {
          "internalType": "uint256",
          "name": "",
          "type": "uint256"
        }
      ],
      "stateMutability": "pure",
      "type": "function"
    },
    {
      "inputs": [
        {
          "internalType": "string",
          "name": "_title",
          "type": "string"
        },
        {
          "internalType": "string",
          "name": "_description",
          "type": "string"
        }
      ],
      "name": "createProposal",
      "outputs": [],
      "stateMutability": "nonpayable",
      "type": "function"
    },
    {
      "inputs": [
        {
          "internalType": "uint256",
          "name": "_proposalId",
          "type": "uint256"
        }
      ],
      "name": "executeProposal",
      "outputs": [],
      "stateMutability": "nonpayable",
      "type": "function"
    },
    {
      "inputs": [
        {
          "internalType": "uint256",
          "name": "_proposalId",
          "type": "uint256"
        }
      ],
      "name": "getProposal",
      "outputs": [
        {
          "internalType": "uint256",
          "name": "id",
          "type": "uint256"
        },
        {
          "internalType": "string",
          "name": "title",
          "type": "string"
        },
        {
          "internalType": "string",
          "name": "description",
          "type": "string"
        },
        {
          "internalType": "uint256",
          "name": "createdAt",
          "type": "uint256"
        },
        {
          "internalType": "uint256",
          "name": "votingDeadline",
          "type": "uint256"
        },
        {
          "internalType": "bool",
          "name": "executed",
          "type": "bool"
        },
        {
          "internalType": "uint256",
          "name": "yesVotes",
          "type": "uint256"
        },
        {
          "internalType": "uint256",
          "name": "noVotes",
          "type": "uint256"
        },
        {
          "internalType": "uint256",
          "name": "abstainVotes",
          "type": "uint256"
        }
      ],
      "stateMutability": "view",
      "type": "function"
    },
    {
      "inputs": [
        {
          "internalType": "uint256",
          "name": "_proposalId",
          "type": "uint256"
        }
      ],
      "name": "getProposalVotes",
      "outputs": [
        {
          "components": [
            {
              "internalType": "uint256",
              "name": "proposalId",
              "type": "uint256"
            },
            {
              "internalType": "address",
              "name": "voter",
              "type": "address"
            },
            {
              "internalType": "uint8",
              "name": "choice",
              "type": "uint8"
            },
            {
              "internalType": "uint256",
              "name": "tokensSpent",
              "type": "uint256"
            }
          ],
          "internalType": "struct ArcanaDAO.Vote[]",
          "name": "",
          "type": "tuple[]"
        }
      ],
      "stateMutability": "view",
      "type": "function"
    },
    {
      "inputs": [],
      "name": "getTotalProposals",
      "outputs": [
        {
          "internalType": "uint256",
          "name": "",
          "type": "uint256"
        }
      ],
      "stateMutability": "view",
      "type": "function"
    },
    {
      "inputs": [
        {
          "internalType": "uint256",
          "name": "_proposalId",
          "type": "uint256"
        }
      ],
      "name": "isVotingActive",
      "outputs": [
        {
          "internalType": "bool",
          "name": "",
          "type": "bool"
        }
      ],
      "stateMutability": "view",
      "type": "function"
    },
    {
      "inputs": [],
      "name": "owner",
      "outputs": [
        {
          "internalType": "address",
          "name": "",
          "type": "address"
        }
      ],
      "stateMutability": "view",
      "type": "function"
    },
    {
      "inputs": [],
      "name": "proposalCount",
      "outputs": [
        {
          "internalType": "uint256",
          "name": "",
          "type": "uint256"
        }
      ],
      "stateMutability": "view",
      "type": "function"
    },
    {
      "inputs": [
        {
          "internalType": "uint256",
          "name": "",
          "type": "uint256"
        }
      ],
      "name": "proposals",
      "outputs": [
        {
          "internalType": "uint256",
          "name": "id",
          "type": "uint256"
        },
        {
          "internalType": "string",
          "name": "title",
          "type": "string"
        },
        {
          "internalType": "string",
          "name": "description",
          "type": "string"
        },
        {
          "internalType": "uint256",
          "name": "createdAt",
          "type": "uint256"
        },
        {
          "internalType": "uint256",
          "name": "votingDeadline",
          "type": "uint256"
        },
        {
          "internalType": "bool",
          "name": "executed",
          "type": "bool"
        },
        {
          "internalType": "uint256",
          "name": "yesVotes",
          "type": "uint256"
        },
        {
          "internalType": "uint256",
          "name": "noVotes",
          "type": "uint256"
        },
        {
          "internalType": "uint256",
          "name": "abstainVotes",
          "type": "uint256"
        }
      ],
      "stateMutability": "view",
      "type": "function"
    },
    {
      "inputs": [],
      "name": "renounceOwnership",
      "outputs": [],
      "stateMutability": "nonpayable",
      "type": "function"
    },
    {
      "inputs": [],
      "name": "token",
      "outputs": [
        {
          "internalType": "contract IERC20",
          "name": "",
          "type": "address"
        }
      ],
      "stateMutability": "view",
      "type": "function"
    },
    {
      "inputs": [
        {
          "internalType": "address",
          "name": "newOwner",
          "type": "address"
        }
      ],
      "name": "transferOwnership",
      "outputs": [],
      "stateMutability": "nonpayable",
      "type": "function"
    },
    {
      "inputs": [
        {
          "internalType": "uint256",
          "name": "_proposalId",
          "type": "uint256"
        },
        {
          "internalType": "uint256",
          "name": "_votes",
          "type": "uint256"
        },
        {
          "internalType": "uint8",
          "name": "_choice",
          "type": "uint8"
        }
      ],
      "name": "vote",
      "outputs": [],
      "stateMutability": "nonpayable",
      "type": "function"
    },
    {
      "inputs": [
        {
          "internalType": "uint256",
          "name": "",
          "type": "uint256"
        },
        {
          "internalType": "address",
          "name": "",
          "type": "address"
        }
      ],
      "name": "voterTokensSpent",
      "outputs": [
        {
          "internalType": "uint256",
          "name": "",
          "type": "uint256"
        }
      ],
      "stateMutability": "view",
      "type": "function"
    },
    {
      "inputs": [
        {
          "internalType": "uint256",
          "name": "",
          "type": "uint256"
        },
        {
          "internalType": "uint256",
          "name": "",
          "type": "uint256"
        }
      ],
      "name": "votes",
      "outputs": [
        {
          "internalType": "uint256",
          "name": "proposalId",
          "type": "uint256"
        },
        {
          "internalType": "address",
          "name": "voter",
          "type": "address"
        },
        {
          "internalType": "uint8",
          "name": "choice",
          "type": "uint8"
        },
        {
          "internalType": "uint256",
          "name": "tokensSpent",
          "type": "uint256"
        }
      ],
      "stateMutability": "view",
      "type": "function"
    },
    {
      "inputs": [],
      "name": "votingDuration",
      "outputs": [
        {
          "internalType": "uint256",
          "name": "",
          "type": "uint256"
        }
      ],
      "stateMutability": "view",
      "type": "function"
    },
    {
      "inputs": [
        {
          "internalType": "address",
          "name": "",
          "type": "address"
        }
      ],
      "name": "votingPower",
      "outputs": [
        {
          "internalType": "uint256",
          "name": "",
          "type": "uint256"
        }
      ],
      "stateMutability": "view",
      "type": "function"
    }
  ],
  "bytecode": "0x6080604052600060065562093a8060075534801561001c57600080fd5b506040516125ca3803806125ca833981810160405281019061003e919061022f565b33600073ffffffffffffffffffffffffffffffffffffffff168173ffffffffffffffffffffffffffffffffffffffff16036100b15760006040517f1e4fbdf70000000000000000000000000000000000000000000000000000000081526004016100a8919061026b565b60405180910390fd5b6100c08161010860201b60201c565b5080600160006101000a81548173ffffffffffffffffffffffffffffffffffffffff021916908373ffffffffffffffffffffffffffffffffffffffff16021790555050610286565b60008060009054906101000a900473ffffffffffffffffffffffffffffffffffffffff169050816000806101000a81548173ffffffffffffffffffffffffffffffffffffffff021916908373ffffffffffffffffffffffffffffffffffffffff1602179055508173ffffffffffffffffffffffffffffffffffffffff168173ffffffffffffffffffffffffffffffffffffffff167f8be0079c531659141344cd1fd0a4f28419497f9722a3daafe3b4186f6b6457e060405160405180910390a35050565b600080fd5b600073ffffffffffffffffffffffffffffffffffffffff82169050919050565b60006101fc826101d1565b9050919050565b61020c816101f1565b811461021757600080fd5b50565b60008151905061022981610203565b92915050565b600060208284031215610245576102446101cc565b5b60006102538482850161021a565b91505092915050565b610265816101f1565b82525050565b6000602082019050610280600083018461025c565b92915050565b612335806102956000396000f3fe608060405234801561001057600080fd5b50600436106101165760003560e01c80638cf68776116100a2578063c6e36a3211610071578063c6e36a32146102fb578063c7f758a81461032e578063da35c66414610366578063f2fde38b14610384578063fc0c546a146103a057610116565b80638cf68776146102615780638da5cb5b14610291578063bbb2eab9146102af578063c07473f6146102cb57610116565b806347c66140116100e957806347c66140146101ab57806365e481e2146101db57806368de4a8e146101f7578063715018a614610227578063772744b51461023157610116565b8063013cf08b1461011b5780630d61b51914610153578063132002fc1461016f5780631a5007dd1461018d575b600080fd5b6101356004803603810190610130919061130e565b6103be565b60405161014a999897969594939291906113f5565b60405180910390f35b61016d6004803603810190610168919061130e565b610529565b005b61017761062e565b6040516101849190611490565b60405180910390f35b610195610634565b6040516101a29190611490565b60405180910390f35b6101c560048036038101906101c0919061130e565b61063e565b6040516101d2919061161b565b60405180910390f35b6101f560048036038101906101f09190611772565b610737565b005b610211600480360381019061020c9190611816565b610831565b60405161021e9190611490565b60405180910390f35b61022f610856565b005b61024b6004803603810190610246919061130e565b61086a565b6040516102589190611856565b60405180910390f35b61027b6004803603810190610276919061130e565b6108ba565b6040516102889190611490565b60405180910390f35b6102996108cf565b6040516102a69190611880565b60405180910390f35b6102c960048036038101906102c491906118c7565b6108f8565b005b6102e560048036038101906102e0919061191a565b610e98565b6040516102f29190611490565b60405180910390f35b61031560048036038101906103109190611947565b610eb0565b6040516103259493929190611996565b60405180910390f35b6103486004803603810190610343919061130e565b610f2a565b60405161035d999897969594939291906113f5565b60405180910390f35b61036e6110bf565b60405161037b9190611490565b60405180910390f35b61039e6004803603810190610399919061191a565b6110c5565b005b6103a861114b565b6040516103b59190611a3a565b60405180910390f35b60026020528060005260406000206000915090508060000154908060010180546103e790611a84565b80601f016020809104026020016040519081016040528092919081815260200182805461041390611a84565b80156104605780601f1061043557610100808354040283529160200191610460565b820191906000526020600020905b81548152906001019060200180831161044357829003601f168201915b50505050509080600201805461047590611a84565b80601f01602080910402602001604051908101604052809291908181526020018280546104a190611a84565b80156104ee5780601f106104c3576101008083540402835291602001916104ee565b820191906000526020600020905b8154815290600101906020018083116104d157829003601f168201915b5050505050908060030154908060040154908060050160009054906101000a900460ff16908060060154908060070154908060080154905089565b610531611171565b60006002600083815260200190815260200160002090508060040154421161058e576040517f08c379a000000000000000000000000000000000000000000000000000000000815260040161058590611b01565b60405180910390fd5b8060050160009054906101000a900460ff16156105e0576040517f08c379a00000000000000000000000000000000000000000000000000000000081526004016105d790611b6d565b60405180910390fd5b60018160050160006101000a81548160ff021916908315150217905550817f712ae1383f79ac853f8d882153778e0260ef8f03b504e2866e0593e04d2b291f60405160405180910390a25050565b60075481565b6000600654905090565b606060036000838152602001908152602001600020805480602002602001604051908101604052809291908181526020016000905b8282101561072c5783829060005260206000209060030201604051806080016040529081600082015481526020016001820160009054906101000a900473ffffffffffffffffffffffffffffffffffffffff1673ffffffffffffffffffffffffffffffffffffffff1673ffffffffffffffffffffffffffffffffffffffff1681526020016001820160149054906101000a900460ff1660ff1660ff16815260200160028201548152505081526020019060010190610673565b505050509050919050565b61073f611171565b6006600081548092919061075290611bbc565b91905055506000600260006006548152602001908152602001600020905060065481600001819055508281600101908161078c9190611da6565b508181600201908161079e9190611da6565b50428160030181905550600754426107b69190611e78565b816004018190555060008160050160006101000a81548160ff0219169083151502179055503373ffffffffffffffffffffffffffffffffffffffff166006547fc8c078bfee58e5822588f08b4509ed1eb5058e03f666cca84dd2d44bf5c288a8856040516108249190611eac565b60405180910390a3505050565b6004602052816000526040600020602052806000526040600020600091509150505481565b61085e611171565b61086860006111f8565b565b6000600260008381526020019081526020016000206004015442111580156108b357506002600083815260200190815260200160002060050160009054906101000a900460ff16155b9050919050565b600081826108c89190611ece565b9050919050565b60008060009054906101000a900473ffffffffffffffffffffffffffffffffffffffff16905090565b60008311801561090a57506006548311155b610949576040517f08c379a000000000000000000000000000000000000000000000000000000000815260040161094090611f5c565b60405180910390fd5b60008211801561095a575060648211155b610999576040517f08c379a000000000000000000000000000000000000000000000000000000000815260040161099090611fc8565b60405180910390fd5b60018160ff16101580156109b1575060038160ff1611155b6109f0576040517f08c379a00000000000000000000000000000000000000000000000000000000081526004016109e790612034565b60405180910390fd5b60006002600085815260200190815260200160002090508060040154421115610a4e576040517f08c379a0000000000000000000000000000000000000000000000000000000008152600401610a45906120a0565b60405180910390fd5b8060050160009054906101000a900460ff1615610aa0576040517f08c379a0000000000000000000000000000000000000000000000000000000008152600401610a979061210c565b60405180910390fd5b6000610aab846108ba565b905080600160009054906101000a900473ffffffffffffffffffffffffffffffffffffffff1673ffffffffffffffffffffffffffffffffffffffff166370a08231336040518263ffffffff1660e01b8152600401610b099190611880565b602060405180830381865afa158015610b26573d6000803e3d6000fd5b505050506040513d601f19601f82011682018060405250810190610b4a9190612141565b1015610b8b576040517f08c379a0000000000000000000000000000000000000000000000000000000008152600401610b82906121ba565b60405180910390fd5b600160009054906101000a900473ffffffffffffffffffffffffffffffffffffffff1673ffffffffffffffffffffffffffffffffffffffff166323b872dd3330846040518463ffffffff1660e01b8152600401610bea939291906121da565b6020604051808303816000875af1158015610c09573d6000803e3d6000fd5b505050506040513d601f19601f82011682018060405250810190610c2d919061223d565b610c6c576040517f08c379a0000000000000000000000000000000000000000000000000000000008152600401610c63906122b6565b60405180910390fd5b600060405180608001604052808781526020013373ffffffffffffffffffffffffffffffffffffffff1681526020018560ff168152602001838152509050600360008781526020019081526020016000208190806001815401808255809150506001900390600052602060002090600302016000909190919091506000820151816000015560208201518160010160006101000a81548173ffffffffffffffffffffffffffffffffffffffff021916908373ffffffffffffffffffffffffffffffffffffffff16021790555060408201518160010160146101000a81548160ff021916908360ff160217905550606082015181600201555050816004600088815260200190815260200160002060003373ffffffffffffffffffffffffffffffffffffffff1673ffffffffffffffffffffffffffffffffffffffff1681526020019081526020016000206000828254610dc59190611e78565b9250508190555060018460ff1603610df75784836006016000828254610deb9190611e78565b92505081905550610e3f565b60028460ff1603610e225784836007016000828254610e169190611e78565b92505081905550610e3e565b84836008016000828254610e369190611e78565b925050819055505b5b3373ffffffffffffffffffffffffffffffffffffffff16867fb83d25c6a5d258561330739951487acb4bd09ba5190b5d32c4f261817d9067928685604051610e889291906122d6565b60405180910390a3505050505050565b60056020528060005260406000206000915090505481565b60036020528160005260406000208181548110610ecc57600080fd5b9060005260206000209060030201600091509150508060000154908060010160009054906101000a900473ffffffffffffffffffffffffffffffffffffffff16908060010160149054906101000a900460ff16908060020154905084565b60006060806000806000806000806000600260008c8152602001908152602001600020905080600001548160010182600201836003015484600401548560050160009054906101000a900460ff16866006015487600701548860080154878054610f9390611a84565b80601f0160208091040260200160405190810160405280929190818152602001828054610fbf90611a84565b801561100c5780601f10610fe15761010080835404028352916020019161100c565b820191906000526020600020905b815481529060010190602001808311610fef57829003601f168201915b5050505050975086805461101f90611a84565b80601f016020809104026020016040519081016040528092919081815260200182805461104b90611a84565b80156110985780601f1061106d57610100808354040283529160200191611098565b820191906000526020600020905b81548152906001019060200180831161107b57829003601f168201915b50505050509650995099509950995099509950995099509950509193959799909294969850565b60065481565b6110cd611171565b600073ffffffffffffffffffffffffffffffffffffffff168173ffffffffffffffffffffffffffffffffffffffff160361113f5760006040517f1e4fbdf70000000000000000000000000000000000000000000000000000000081526004016111369190611880565b60405180910390fd5b611148816111f8565b50565b600160009054906101000a900473ffffffffffffffffffffffffffffffffffffffff1681565b6111796112bc565b73ffffffffffffffffffffffffffffffffffffffff166111976108cf565b73ffffffffffffffffffffffffffffffffffffffff16146111f6576111ba6112bc565b6040517f118cdaa70000000000000000000000000000000000000000000000000000000081526004016111ed9190611880565b60405180910390fd5b565b60008060009054906101000a900473ffffffffffffffffffffffffffffffffffffffff169050816000806101000a81548173ffffffffffffffffffffffffffffffffffffffff021916908373ffffffffffffffffffffffffffffffffffffffff1602179055508173ffffffffffffffffffffffffffffffffffffffff168173ffffffffffffffffffffffffffffffffffffffff167f8be0079c531659141344cd1fd0a4f28419497f9722a3daafe3b4186f6b6457e060405160405180910390a35050565b600033905090565b6000604051905090565b600080fd5b600080fd5b6000819050919050565b6112eb816112d8565b81146112f657600080fd5b50565b600081359050611308816112e2565b92915050565b600060208284031215611324576113236112ce565b5b6000611332848285016112f9565b91505092915050565b611344816112d8565b82525050565b600081519050919050565b600082825260208201905092915050565b60005b83811015611384578082015181840152602081019050611369565b60008484015250505050565b6000601f19601f8301169050919050565b60006113ac8261134a565b6113b68185611355565b93506113c6818560208601611366565b6113cf81611390565b840191505092915050565b60008115159050919050565b6113ef816113da565b82525050565b60006101208201905061140b600083018c61133b565b818103602083015261141d818b6113a1565b90508181036040830152611431818a6113a1565b9050611440606083018961133b565b61144d608083018861133b565b61145a60a08301876113e6565b61146760c083018661133b565b61147460e083018561133b565b61148261010083018461133b565b9a9950505050505050505050565b60006020820190506114a5600083018461133b565b92915050565b600081519050919050565b600082825260208201905092915050565b6000819050602082019050919050565b6114e0816112d8565b82525050565b600073ffffffffffffffffffffffffffffffffffffffff82169050919050565b6000611511826114e6565b9050919050565b61152181611506565b82525050565b600060ff82169050919050565b61153d81611527565b82525050565b60808201600082015161155960008501826114d7565b50602082015161156c6020850182611518565b50604082015161157f6040850182611534565b50606082015161159260608501826114d7565b50505050565b60006115a48383611543565b60808301905092915050565b6000602082019050919050565b60006115c8826114ab565b6115d281856114b6565b93506115dd836114c7565b8060005b8381101561160e5781516115f58882611598565b9750611600836115b0565b9250506001810190506115e1565b5085935050505092915050565b6000602082019050818103600083015261163581846115bd565b905092915050565b600080fd5b600080fd5b7f4e487b7100000000000000000000000000000000000000000000000000000000600052604160045260246000fd5b61167f82611390565b810181811067ffffffffffffffff8211171561169e5761169d611647565b5b80604052505050565b60006116b16112c4565b90506116bd8282611676565b919050565b600067ffffffffffffffff8211156116dd576116dc611647565b5b6116e682611390565b9050602081019050919050565b82818337600083830152505050565b6000611715611710846116c2565b6116a7565b90508281526020810184848401111561173157611730611642565b5b61173c8482856116f3565b509392505050565b600082601f8301126117595761175861163d565b5b8135611769848260208601611702565b91505092915050565b60008060408385031215611789576117886112ce565b5b600083013567ffffffffffffffff8111156117a7576117a66112d3565b5b6117b385828601611744565b925050602083013567ffffffffffffffff8111156117d4576117d36112d3565b5b6117e085828601611744565b9150509250929050565b6117f381611506565b81146117fe57600080fd5b50565b600081359050611810816117ea565b92915050565b6000806040838503121561182d5761182c6112ce565b5b600061183b858286016112f9565b925050602061184c85828601611801565b9150509250929050565b600060208201905061186b60008301846113e6565b92915050565b61187a81611506565b82525050565b60006020820190506118956000830184611871565b92915050565b6118a481611527565b81146118af57600080fd5b50565b6000813590506118c18161189b565b92915050565b6000806000606084860312156118e0576118df6112ce565b5b60006118ee868287016112f9565b93505060206118ff868287016112f9565b9250506040611910868287016118b2565b9150509250925092565b6000602082840312156119305761192f6112ce565b5b600061193e84828501611801565b91505092915050565b6000806040838503121561195e5761195d6112ce565b5b600061196c858286016112f9565b925050602061197d858286016112f9565b9150509250929050565b61199081611527565b82525050565b60006080820190506119ab600083018761133b565b6119b86020830186611871565b6119c56040830185611987565b6119d2606083018461133b565b95945050505050565b6000819050919050565b6000611a006119fb6119f6846114e6565b6119db565b6114e6565b9050919050565b6000611a12826119e5565b9050919050565b6000611a2482611a07565b9050919050565b611a3481611a19565b82525050565b6000602082019050611a4f6000830184611a2b565b92915050565b7f4e487b7100000000000000000000000000000000000000000000000000000000600052602260045260246000fd5b60006002820490506001821680611a9c57607f821691505b602082108103611aaf57611aae611a55565b5b50919050565b7f566f74696e67206e6f742066696e697368656400000000000000000000000000600082015250565b6000611aeb601383611355565b9150611af682611ab5565b602082019050919050565b60006020820190508181036000830152611b1a81611ade565b9050919050565b7f416c726561647920657865637574656400000000000000000000000000000000600082015250565b6000611b57601083611355565b9150611b6282611b21565b602082019050919050565b60006020820190508181036000830152611b8681611b4a565b9050919050565b7f4e487b7100000000000000000000000000000000000000000000000000000000600052601160045260246000fd5b6000611bc7826112d8565b91507fffffffffffffffffffffffffffffffffffffffffffffffffffffffffffffffff8203611bf957611bf8611b8d565b5b600182019050919050565b60008190508160005260206000209050919050565b60006020601f8301049050919050565b600082821b905092915050565b600060088302611c667fffffffffffffffffffffffffffffffffffffffffffffffffffffffffffffffff82611c29565b611c708683611c29565b95508019841693508086168417925050509392505050565b6000611ca3611c9e611c99846112d8565b6119db565b6112d8565b9050919050565b6000819050919050565b611cbd83611c88565b611cd1611cc982611caa565b848454611c36565b825550505050565b600090565b611ce6611cd9565b611cf1818484611cb4565b505050565b5b81811015611d1557611d0a600082611cde565b600181019050611cf7565b5050565b601f821115611d5a57611d2b81611c04565b611d3484611c19565b81016020851015611d43578190505b611d57611d4f85611c19565b830182611cf6565b50505b505050565b600082821c905092915050565b6000611d7d60001984600802611d5f565b1980831691505092915050565b6000611d968383611d6c565b9150826002028217905092915050565b611daf8261134a565b67ffffffffffffffff811115611dc857611dc7611647565b5b611dd28254611a84565b611ddd828285611d19565b600060209050601f831160018114611e105760008415611dfe578287015190505b611e088582611d8a565b865550611e70565b601f198416611e1e86611c04565b60005b82811015611e4657848901518255600182019150602085019450602081019050611e21565b86831015611e635784890151611e5f601f891682611d6c565b8355505b6001600288020188555050505b505050505050565b6000611e83826112d8565b9150611e8e836112d8565b9250828201905080821115611ea657611ea5611b8d565b5b92915050565b60006020820190508181036000830152611ec681846113a1565b905092915050565b6000611ed9826112d8565b9150611ee4836112d8565b9250828202611ef2816112d8565b91508282048414831517611f0957611f08611b8d565b5b5092915050565b7f496e76616c69642070726f706f73616c00000000000000000000000000000000600082015250565b6000611f46601083611355565b9150611f5182611f10565b602082019050919050565b60006020820190508181036000830152611f7581611f39565b9050919050565b7f566f746573206d75737420626520312d31303000000000000000000000000000600082015250565b6000611fb2601383611355565b9150611fbd82611f7c565b602082019050919050565b60006020820190508181036000830152611fe181611fa5565b9050919050565b7f43686f696365206d75737420626520312d330000000000000000000000000000600082015250565b600061201e601283611355565b915061202982611fe8565b602082019050919050565b6000602082019050818103600083015261204d81612011565b9050919050565b7f566f74696e6720656e6465640000000000000000000000000000000000000000600082015250565b600061208a600c83611355565b915061209582612054565b602082019050919050565b600060208201905081810360008301526120b98161207d565b9050919050565b7f50726f706f73616c20616c726561647920657865637574656400000000000000600082015250565b60006120f6601983611355565b9150612101826120c0565b602082019050919050565b60006020820190508181036000830152612125816120e9565b9050919050565b60008151905061213b816112e2565b92915050565b600060208284031215612157576121566112ce565b5b60006121658482850161212c565b91505092915050565b7f496e73756666696369656e7420746f6b656e7300000000000000000000000000600082015250565b60006121a4601383611355565b91506121af8261216e565b602082019050919050565b600060208201905081810360008301526121d381612197565b9050919050565b60006060820190506121ef6000830186611871565b6121fc6020830185611871565b612209604083018461133b565b949350505050565b61221a816113da565b811461222557600080fd5b50565b60008151905061223781612211565b92915050565b600060208284031215612253576122526112ce565b5b600061226184828501612228565b91505092915050565b7f546f6b656e207472616e73666572206661696c65640000000000000000000000600082015250565b60006122a0601583611355565b91506122ab8261226a565b602082019050919050565b600060208201905081810360008301526122cf81612293565b9050919050565b60006040820190506122eb6000830185611987565b6122f8602083018461133b565b939250505056fea2646970667358221220391434a00862306c1034e120c59afaf58e8995212dc981c12660b7a1b164ea7c64736f6c634300081c0033",
  "linkReferences": {},
  "deployedLinkReferences": {}
}