{
  "_format": "hh-sol-artifact-1",
  "contractName": "CampusToken",
  "sourceName": "contracts/campusToken.sol",
  "abi": [
    {
      "inputs": [
        {
          "internalType": "uint256",
          "name": "initialSupply",
          "type": "uint256"
        }
      ],
      "stateMutability": "nonpayable",
      "type": "constructor"
    },
    {
      "inputs": [
        {
          "internalType": "address",
          "name": "spender",
          "type": "address"
        },
        {
          "internalType": "uint256",
          "name": "allowance",
          "type": "uint256"
        },
        {
          "internalType": "uint256",
          "name": "needed",
          "type": "uint256"
        }
      ],
      "name": "ERC20InsufficientAllowance",
      "type": "error"
    },
    {
      "inputs": [
        {
          "internalType": "address",
          "name": "sender",
          "type": "address"
        },
        {
          "internalType": "uint256",
          "name": "balance",
          "type": "uint256"
        },
        {
          "internalType": "uint256",
          "name": "needed",
          "type": "uint256"
        }
      ],
      "name": "ERC20InsufficientBalance",
      "type": "error"
    },
    {
      "inputs": [
        {
          "internalType": "address",
          "name": "approver",
          "type": "address"
        }
      ],
      "name": "ERC20InvalidApprover",
      "type": "error"
    },
    {
      "inputs": [
        {
          "internalType": "address",
          "name": "receiver",
          "type": "address"
        }
      ],
      "name": "ERC20InvalidReceiver",
      "type": "error"
    },
    {
      "inputs": [
        {
          "internalType": "address",
          "name": "sender",
          "type": "address"
        }
      ],
      "name": "ERC20InvalidSender",
      "type": "error"
    },
    {
      "inputs": [
        {
          "internalType": "address",
          "name": "spender",
          "type": "address"
        }
      ],
      "name": "ERC20InvalidSpender",
      "type": "error"
    },
    {
      "inputs": [
        {
          "internalType": "address",
          "name": "owner",
          "type": "address"
        }
      ],
      "name": "OwnableInvalidOwner",
      "type": "error"
    },
    {
      "inputs": [
        {
          "internalType": "address",
          "name": "account",
          "type": "address"
        }
      ],
      "name": "OwnableUnauthorizedAccount",
      "type": "error"
    },
    {
      "anonymous": false,
      "inputs": [
        {
          "indexed": true,
          "internalType": "address",
          "name": "student",
          "type": "address"
        },
        {
          "indexed": false,
          "internalType": "uint256",
          "name": "points",
          "type": "uint256"
        }
      ],
      "name": "AcademicPointsAwarded",
      "type": "event"
    },
    {
      "anonymous": false,
      "inputs": [
        {
          "indexed": true,
          "internalType": "address",
          "name": "owner",
          "type": "address"
        },
        {
          "indexed": true,
          "internalType": "address",
          "name": "spender",
          "type": "address"
        },
        {
          "indexed": false,
          "internalType": "uint256",
          "name": "value",
          "type": "uint256"
        }
      ],
      "name": "Approval",
      "type": "event"
    },
    {
      "anonymous": false,
      "inputs": [
        {
          "indexed": true,
          "internalType": "address",
          "name": "previousOwner",
          "type": "address"
        },
        {
          "indexed": true,
          "internalType": "address",
          "name": "newOwner",
          "type": "address"
        }
      ],
      "name": "OwnershipTransferred",
      "type": "event"
    },
    {
      "anonymous": false,
      "inputs": [
        {
          "indexed": true,
          "internalType": "address",
          "name": "to",
          "type": "address"
        },
        {
          "indexed": false,
          "internalType": "uint256",
          "name": "amount",
          "type": "uint256"
        },
        {
          "indexed": false,
          "internalType": "string",
          "name": "reason",
          "type": "string"
        }
      ],
      "name": "TokensMinted",
      "type": "event"
    },
    {
      "anonymous": false,
      "inputs": [
        {
          "indexed": true,
          "internalType": "address",
          "name": "from",
          "type": "address"
        },
        {
          "indexed": true,
          "internalType": "address",
          "name": "to",
          "type": "address"
        },
        {
          "indexed": false,
          "internalType": "uint256",
          "name": "amount",
          "type": "uint256"
        }
      ],
      "name": "TokensTransferred",
      "type": "event"
    },
    {
      "anonymous": false,
      "inputs": [
        {
          "indexed": true,
          "internalType": "address",
          "name": "from",
          "type": "address"
        },
        {
          "indexed": true,
          "internalType": "address",
          "name": "to",
          "type": "address"
        },
        {
          "indexed": false,
          "internalType": "uint256",
          "name": "value",
          "type": "uint256"
        }
      ],
      "name": "Transfer",
      "type": "event"
    },
    {
      "inputs": [
        {
          "internalType": "address",
          "name": "",
          "type": "address"
        }
      ],
      "name": "academicPoints",
      "outputs": [
        {
          "internalType": "uint256",
          "name": "",
          "type": "uint256"
        }
      ],
      "stateMutability": "view",
      "type": "function"
    },
    {
      "inputs": [
        {
          "internalType": "address",
          "name": "owner",
          "type": "address"
        },
        {
          "internalType": "address",
          "name": "spender",
          "type": "address"
        }
      ],
      "name": "allowance",
      "outputs": [
        {
          "internalType": "uint256",
          "name": "",
          "type": "uint256"
        }
      ],
      "stateMutability": "view",
      "type": "function"
    },
    {
      "inputs": [
        {
          "internalType": "address",
          "name": "spender",
          "type": "address"
        },
        {
          "internalType": "uint256",
          "name": "value",
          "type": "uint256"
        }
      ],
      "name": "approve",
      "outputs": [
        {
          "internalType": "bool",
          "name": "",
          "type": "bool"
        }
      ],
      "stateMutability": "nonpayable",
      "type": "function"
    },
    {
      "inputs": [
        {
          "internalType": "address",
          "name": "student",
          "type": "address"
        },
        {
          "internalType": "uint256",
          "name": "points",
          "type": "uint256"
        }
      ],
      "name": "awardAcademicPoints",
      "outputs": [],
      "stateMutability": "nonpayable",
      "type": "function"
    },
    {
      "inputs": [
        {
          "internalType": "address",
          "name": "account",
          "type": "address"
        }
      ],
      "name": "balanceOf",
      "outputs": [
        {
          "internalType": "uint256",
          "name": "",
          "type": "uint256"
        }
      ],
      "stateMutability": "view",
      "type": "function"
    },
    {
      "inputs": [],
      "name": "decimals",
      "outputs": [
        {
          "internalType": "uint8",
          "name": "",
          "type": "uint8"
        }
      ],
      "stateMutability": "view",
      "type": "function"
    },
    {
      "inputs": [
        {
          "internalType": "address",
          "name": "student",
          "type": "address"
        }
      ],
      "name": "getAcademicPoints",
      "outputs": [
        {
          "internalType": "uint256",
          "name": "",
          "type": "uint256"
        }
      ],
      "stateMutability": "view",
      "type": "function"
    },
    {
      "inputs": [
        {
          "internalType": "address",
          "name": "account",
          "type": "address"
        }
      ],
      "name": "getReadableBalance",
      "outputs": [
        {
          "internalType": "uint256",
          "name": "",
          "type": "uint256"
        }
      ],
      "stateMutability": "view",
      "type": "function"
    },
    {
      "inputs": [
        {
          "internalType": "address",
          "name": "to",
          "type": "address"
        },
        {
          "internalType": "uint256",
          "name": "amount",
          "type": "uint256"
        },
        {
          "internalType": "string",
          "name": "reason",
          "type": "string"
        }
      ],
      "name": "mint",
      "outputs": [],
      "stateMutability": "nonpayable",
      "type": "function"
    },
    {
      "inputs": [],
      "name": "name",
      "outputs": [
        {
          "internalType": "string",
          "name": "",
          "type": "string"
        }
      ],
      "stateMutability": "view",
      "type": "function"
    },
    {
      "inputs": [],
      "name": "owner",
      "outputs": [
        {
          "internalType": "address",
          "name": "",
          "type": "address"
        }
      ],
      "stateMutability": "view",
      "type": "function"
    },
    {
      "inputs": [],
      "name": "renounceOwnership",
      "outputs": [],
      "stateMutability": "nonpayable",
      "type": "function"
    },
    {
      "inputs": [
        {
          "internalType": "address",
          "name": "student",
          "type": "address"
        },
        {
          "internalType": "uint256",
          "name": "tokenAmount",
          "type": "uint256"
        }
      ],
      "name": "rewardStudent",
      "outputs": [],
      "stateMutability": "nonpayable",
      "type": "function"
    },
    {
      "inputs": [],
      "name": "symbol",
      "outputs": [
        {
          "internalType": "string",
          "name": "",
          "type": "string"
        }
      ],
      "stateMutability": "view",
      "type": "function"
    },
    {
      "inputs": [],
      "name": "totalSupply",
      "outputs": [
        {
          "internalType": "uint256",
          "name": "",
          "type": "uint256"
        }
      ],
      "stateMutability": "view",
      "type": "function"
    },
    {
      "inputs": [
        {
          "internalType": "address",
          "name": "to",
          "type": "address"
        },
        {
          "internalType": "uint256",
          "name": "amount",
          "type": "uint256"
        }
      ],
      "name": "transfer",
      "outputs": [
        {
          "internalType": "bool",
          "name": "",
          "type": "bool"
        }
      ],
      "stateMutability": "nonpayable",
      "type": "function"
    },
    {
      "inputs": [
        {
          "internalType": "address",
          "name": "from",
          "type": "address"
        },
        {
          "internalType": "address",
          "name": "to",
          "type": "address"
        },
        {
          "internalType": "uint256",
          "name": "value",
          "type": "uint256"
        }
      ],
      "name": "transferFrom",
      "outputs": [
        {
          "internalType": "bool",
          "name": "",
          "type": "bool"
        }
      ],
      "stateMutability": "nonpayable",
      "type": "function"
    },
    {
      "inputs": [
        {
          "internalType": "address",
          "name": "newOwner",
          "type": "address"
        }
      ],
      "name": "transferOwnership",
      "outputs": [],
      "stateMutability": "nonpayable",
      "type": "function"
    }
  ],
  "bytecode": "0x60806040526012600560146101000a81548160ff021916908360ff16021790555034801561002c57600080fd5b5060405161265d38038061265d833981810160405281019061004e9190610550565b336040518060400160405280600681526020017f417263616e6100000000000000000000000000000000000000000000000000008152506040518060400160405280600381526020017f415243000000000000000000000000000000000000000000000000000000000081525081600390816100ca91906107c3565b5080600490816100da91906107c3565b505050600073ffffffffffffffffffffffffffffffffffffffff168173ffffffffffffffffffffffffffffffffffffffff160361014f5760006040517f1e4fbdf700000000000000000000000000000000000000000000000000000000815260040161014691906108d6565b60405180910390fd5b61015e8161019960201b60201c565b506101933361017161025f60201b60201c565b600a61017d9190610a60565b836101889190610aab565b61026860201b60201c565b50610b82565b6000600560009054906101000a900473ffffffffffffffffffffffffffffffffffffffff16905081600560006101000a81548173ffffffffffffffffffffffffffffffffffffffff021916908373ffffffffffffffffffffffffffffffffffffffff1602179055508173ffffffffffffffffffffffffffffffffffffffff168173ffffffffffffffffffffffffffffffffffffffff167f8be0079c531659141344cd1fd0a4f28419497f9722a3daafe3b4186f6b6457e060405160405180910390a35050565b60006012905090565b600073ffffffffffffffffffffffffffffffffffffffff168273ffffffffffffffffffffffffffffffffffffffff16036102da5760006040517fec442f050000000000000000000000000000000000000000000000000000000081526004016102d191906108d6565b60405180910390fd5b6102ec600083836102f060201b60201c565b5050565b600073ffffffffffffffffffffffffffffffffffffffff168373ffffffffffffffffffffffffffffffffffffffff16036103425780600260008282546103369190610aed565b92505081905550610415565b60008060008573ffffffffffffffffffffffffffffffffffffffff1673ffffffffffffffffffffffffffffffffffffffff168152602001908152602001600020549050818110156103ce578381836040517fe450d38c0000000000000000000000000000000000000000000000000000000081526004016103c593929190610b30565b60405180910390fd5b8181036000808673ffffffffffffffffffffffffffffffffffffffff1673ffffffffffffffffffffffffffffffffffffffff16815260200190815260200160002081905550505b600073ffffffffffffffffffffffffffffffffffffffff168273ffffffffffffffffffffffffffffffffffffffff160361045e57806002600082825403925050819055506104ab565b806000808473ffffffffffffffffffffffffffffffffffffffff1673ffffffffffffffffffffffffffffffffffffffff168152602001908152602001600020600082825401925050819055505b8173ffffffffffffffffffffffffffffffffffffffff168373ffffffffffffffffffffffffffffffffffffffff167fddf252ad1be2c89b69c2b068fc378daa952ba7f163c4a11628f55a4df523b3ef836040516105089190610b67565b60405180910390a3505050565b600080fd5b6000819050919050565b61052d8161051a565b811461053857600080fd5b50565b60008151905061054a81610524565b92915050565b60006020828403121561056657610565610515565b5b60006105748482850161053b565b91505092915050565b600081519050919050565b7f4e487b7100000000000000000000000000000000000000000000000000000000600052604160045260246000fd5b7f4e487b7100000000000000000000000000000000000000000000000000000000600052602260045260246000fd5b600060028204905060018216806105fe57607f821691505b602082108103610611576106106105b7565b5b50919050565b60008190508160005260206000209050919050565b60006020601f8301049050919050565b600082821b905092915050565b6000600883026106797fffffffffffffffffffffffffffffffffffffffffffffffffffffffffffffffff8261063c565b610683868361063c565b95508019841693508086168417925050509392505050565b6000819050919050565b60006106c06106bb6106b68461051a565b61069b565b61051a565b9050919050565b6000819050919050565b6106da836106a5565b6106ee6106e6826106c7565b848454610649565b825550505050565b600090565b6107036106f6565b61070e8184846106d1565b505050565b5b81811015610732576107276000826106fb565b600181019050610714565b5050565b601f8211156107775761074881610617565b6107518461062c565b81016020851015610760578190505b61077461076c8561062c565b830182610713565b50505b505050565b600082821c905092915050565b600061079a6000198460080261077c565b1980831691505092915050565b60006107b38383610789565b9150826002028217905092915050565b6107cc8261057d565b67ffffffffffffffff8111156107e5576107e4610588565b5b6107ef82546105e6565b6107fa828285610736565b600060209050601f83116001811461082d576000841561081b578287015190505b61082585826107a7565b86555061088d565b601f19841661083b86610617565b60005b828110156108635784890151825560018201915060208501945060208101905061083e565b86831015610880578489015161087c601f891682610789565b8355505b6001600288020188555050505b505050505050565b600073ffffffffffffffffffffffffffffffffffffffff82169050919050565b60006108c082610895565b9050919050565b6108d0816108b5565b82525050565b60006020820190506108eb60008301846108c7565b92915050565b7f4e487b7100000000000000000000000000000000000000000000000000000000600052601160045260246000fd5b60008160011c9050919050565b6000808291508390505b600185111561097757808604811115610953576109526108f1565b5b60018516156109625780820291505b808102905061097085610920565b9450610937565b94509492505050565b6000826109905760019050610a4c565b8161099e5760009050610a4c565b81600181146109b457600281146109be576109ed565b6001915050610a4c565b60ff8411156109d0576109cf6108f1565b5b8360020a9150848211156109e7576109e66108f1565b5b50610a4c565b5060208310610133831016604e8410600b8410161715610a225782820a905083811115610a1d57610a1c6108f1565b5b610a4c565b610a2f848484600161092d565b92509050818404811115610a4657610a456108f1565b5b81810290505b9392505050565b600060ff82169050919050565b6000610a6b8261051a565b9150610a7683610a53565b9250610aa37fffffffffffffffffffffffffffffffffffffffffffffffffffffffffffffffff8484610980565b905092915050565b6000610ab68261051a565b9150610ac18361051a565b9250828202610acf8161051a565b91508282048414831517610ae657610ae56108f1565b5b5092915050565b6000610af88261051a565b9150610b038361051a565b9250828201905080821115610b1b57610b1a6108f1565b5b92915050565b610b2a8161051a565b82525050565b6000606082019050610b4560008301866108c7565b610b526020830185610b21565b610b5f6040830184610b21565b949350505050565b6000602082019050610b7c6000830184610b21565b92915050565b611acc80610b916000396000f3fe608060405234801561001057600080fd5b50600436106101165760003560e01c8063755bcf18116100a257806395d89b411161007157806395d89b41146102f5578063a9059cbb14610313578063d3fc986414610343578063dd62ed3e1461035f578063f2fde38b1461038f57610116565b8063755bcf181461025b5780637db63d44146102775780638da5cb5b146102a757806390d94b4d146102c557610116565b80632e14cd87116100e95780632e14cd87146101b7578063313ce567146101e75780633218e5791461020557806370a0823114610221578063715018a61461025157610116565b806306fdde031461011b578063095ea7b31461013957806318160ddd1461016957806323b872dd14610187575b600080fd5b6101236103ab565b6040516101309190611237565b60405180910390f35b610153600480360381019061014e9190611301565b61043d565b604051610160919061135c565b60405180910390f35b610171610460565b60405161017e9190611386565b60405180910390f35b6101a1600480360381019061019c91906113a1565b61046a565b6040516101ae919061135c565b60405180910390f35b6101d160048036038101906101cc91906113f4565b610499565b6040516101de9190611386565b60405180910390f35b6101ef6104b1565b6040516101fc919061143d565b60405180910390f35b61021f600480360381019061021a9190611301565b6104ba565b005b61023b600480360381019061023691906113f4565b6105be565b6040516102489190611386565b60405180910390f35b610259610606565b005b61027560048036038101906102709190611301565b61061a565b005b610291600480360381019061028c91906113f4565b6106ca565b60405161029e9190611386565b60405180910390f35b6102af610713565b6040516102bc9190611467565b60405180910390f35b6102df60048036038101906102da91906113f4565b61073d565b6040516102ec9190611386565b60405180910390f35b6102fd61076d565b60405161030a9190611237565b60405180910390f35b61032d60048036038101906103289190611301565b6107ff565b60405161033a919061135c565b60405180910390f35b61035d600480360381019061035891906115b7565b610884565b005b61037960048036038101906103749190611626565b610909565b6040516103869190611386565b60405180910390f35b6103a960048036038101906103a491906113f4565b610990565b005b6060600380546103ba90611695565b80601f01602080910402602001604051908101604052809291908181526020018280546103e690611695565b80156104335780601f1061040857610100808354040283529160200191610433565b820191906000526020600020905b81548152906001019060200180831161041657829003601f168201915b5050505050905090565b600080610448610a16565b9050610455818585610a1e565b600191505092915050565b6000600254905090565b600080610475610a16565b9050610482858285610a30565b61048d858585610ac5565b60019150509392505050565b60066020528060005260406000206000915090505481565b60006012905090565b6104c2610bb9565b6000600660008473ffffffffffffffffffffffffffffffffffffffff1673ffffffffffffffffffffffffffffffffffffffff1681526020019081526020016000205411610544576040517f08c379a000000000000000000000000000000000000000000000000000000000815260040161053b90611712565b60405180910390fd5b61056c826105506104b1565b600a61055c9190611894565b8361056791906118df565b610c40565b8173ffffffffffffffffffffffffffffffffffffffff167f9d89e36eadf856db0ad9ffb5a569e07f95634dddd9501141ecf04820484ad0dc826040516105b2919061196d565b60405180910390a25050565b60008060008373ffffffffffffffffffffffffffffffffffffffff1673ffffffffffffffffffffffffffffffffffffffff168152602001908152602001600020549050919050565b61060e610bb9565b6106186000610cc2565b565b610622610bb9565b80600660008473ffffffffffffffffffffffffffffffffffffffff1673ffffffffffffffffffffffffffffffffffffffff1681526020019081526020016000206000828254610671919061199b565b925050819055508173ffffffffffffffffffffffffffffffffffffffff167fb464e30835a59a7d387525fed2eff530acc82f558ed77af1c0e1609c8a03eb67826040516106be9190611386565b60405180910390a25050565b6000600660008373ffffffffffffffffffffffffffffffffffffffff1673ffffffffffffffffffffffffffffffffffffffff168152602001908152602001600020549050919050565b6000600560009054906101000a900473ffffffffffffffffffffffffffffffffffffffff16905090565b60006107476104b1565b600a6107539190611894565b61075c836105be565b61076691906119fe565b9050919050565b60606004805461077c90611695565b80601f01602080910402602001604051908101604052809291908181526020018280546107a890611695565b80156107f55780601f106107ca576101008083540402835291602001916107f5565b820191906000526020600020905b8154815290600101906020018083116107d857829003601f168201915b5050505050905090565b60008061080c8484610d88565b9050801561087a578373ffffffffffffffffffffffffffffffffffffffff163373ffffffffffffffffffffffffffffffffffffffff167f1b89874203ff7f0bba87c969ada3f32fda22ed38a6706d35199d21280c7811b1856040516108719190611386565b60405180910390a35b8091505092915050565b61088c610bb9565b6108b4836108986104b1565b600a6108a49190611894565b846108af91906118df565b610c40565b8273ffffffffffffffffffffffffffffffffffffffff167f9d89e36eadf856db0ad9ffb5a569e07f95634dddd9501141ecf04820484ad0dc83836040516108fc929190611a2f565b60405180910390a2505050565b6000600160008473ffffffffffffffffffffffffffffffffffffffff1673ffffffffffffffffffffffffffffffffffffffff16815260200190815260200160002060008373ffffffffffffffffffffffffffffffffffffffff1673ffffffffffffffffffffffffffffffffffffffff16815260200190815260200160002054905092915050565b610998610bb9565b600073ffffffffffffffffffffffffffffffffffffffff168173ffffffffffffffffffffffffffffffffffffffff1603610a0a5760006040517f1e4fbdf7000000000000000000000000000000000000000000000000000000008152600401610a019190611467565b60405180910390fd5b610a1381610cc2565b50565b600033905090565b610a2b8383836001610dab565b505050565b6000610a3c8484610909565b90507fffffffffffffffffffffffffffffffffffffffffffffffffffffffffffffffff811015610abf5781811015610aaf578281836040517ffb8f41b2000000000000000000000000000000000000000000000000000000008152600401610aa693929190611a5f565b60405180910390fd5b610abe84848484036000610dab565b5b50505050565b600073ffffffffffffffffffffffffffffffffffffffff168373ffffffffffffffffffffffffffffffffffffffff1603610b375760006040517f96c6fd1e000000000000000000000000000000000000000000000000000000008152600401610b2e9190611467565b60405180910390fd5b600073ffffffffffffffffffffffffffffffffffffffff168273ffffffffffffffffffffffffffffffffffffffff1603610ba95760006040517fec442f05000000000000000000000000000000000000000000000000000000008152600401610ba09190611467565b60405180910390fd5b610bb4838383610f82565b505050565b610bc1610a16565b73ffffffffffffffffffffffffffffffffffffffff16610bdf610713565b73ffffffffffffffffffffffffffffffffffffffff1614610c3e57610c02610a16565b6040517f118cdaa7000000000000000000000000000000000000000000000000000000008152600401610c359190611467565b60405180910390fd5b565b600073ffffffffffffffffffffffffffffffffffffffff168273ffffffffffffffffffffffffffffffffffffffff1603610cb25760006040517fec442f05000000000000000000000000000000000000000000000000000000008152600401610ca99190611467565b60405180910390fd5b610cbe60008383610f82565b5050565b6000600560009054906101000a900473ffffffffffffffffffffffffffffffffffffffff16905081600560006101000a81548173ffffffffffffffffffffffffffffffffffffffff021916908373ffffffffffffffffffffffffffffffffffffffff1602179055508173ffffffffffffffffffffffffffffffffffffffff168173ffffffffffffffffffffffffffffffffffffffff167f8be0079c531659141344cd1fd0a4f28419497f9722a3daafe3b4186f6b6457e060405160405180910390a35050565b600080610d93610a16565b9050610da0818585610ac5565b600191505092915050565b600073ffffffffffffffffffffffffffffffffffffffff168473ffffffffffffffffffffffffffffffffffffffff1603610e1d5760006040517fe602df05000000000000000000000000000000000000000000000000000000008152600401610e149190611467565b60405180910390fd5b600073ffffffffffffffffffffffffffffffffffffffff168373ffffffffffffffffffffffffffffffffffffffff1603610e8f5760006040517f94280d62000000000000000000000000000000000000000000000000000000008152600401610e869190611467565b60405180910390fd5b81600160008673ffffffffffffffffffffffffffffffffffffffff1673ffffffffffffffffffffffffffffffffffffffff16815260200190815260200160002060008573ffffffffffffffffffffffffffffffffffffffff1673ffffffffffffffffffffffffffffffffffffffff168152602001908152602001600020819055508015610f7c578273ffffffffffffffffffffffffffffffffffffffff168473ffffffffffffffffffffffffffffffffffffffff167f8c5be1e5ebec7d5bd14f71427d1e84f3dd0314c0f7b2291e5b200ac8c7c3b92584604051610f739190611386565b60405180910390a35b50505050565b600073ffffffffffffffffffffffffffffffffffffffff168373ffffffffffffffffffffffffffffffffffffffff1603610fd4578060026000828254610fc8919061199b565b925050819055506110a7565b60008060008573ffffffffffffffffffffffffffffffffffffffff1673ffffffffffffffffffffffffffffffffffffffff16815260200190815260200160002054905081811015611060578381836040517fe450d38c00000000000000000000000000000000000000000000000000000000815260040161105793929190611a5f565b60405180910390fd5b8181036000808673ffffffffffffffffffffffffffffffffffffffff1673ffffffffffffffffffffffffffffffffffffffff16815260200190815260200160002081905550505b600073ffffffffffffffffffffffffffffffffffffffff168273ffffffffffffffffffffffffffffffffffffffff16036110f0578060026000828254039250508190555061113d565b806000808473ffffffffffffffffffffffffffffffffffffffff1673ffffffffffffffffffffffffffffffffffffffff168152602001908152602001600020600082825401925050819055505b8173ffffffffffffffffffffffffffffffffffffffff168373ffffffffffffffffffffffffffffffffffffffff167fddf252ad1be2c89b69c2b068fc378daa952ba7f163c4a11628f55a4df523b3ef8360405161119a9190611386565b60405180910390a3505050565b600081519050919050565b600082825260208201905092915050565b60005b838110156111e15780820151818401526020810190506111c6565b60008484015250505050565b6000601f19601f8301169050919050565b6000611209826111a7565b61121381856111b2565b93506112238185602086016111c3565b61122c816111ed565b840191505092915050565b6000602082019050818103600083015261125181846111fe565b905092915050565b6000604051905090565b600080fd5b600080fd5b600073ffffffffffffffffffffffffffffffffffffffff82169050919050565b60006112988261126d565b9050919050565b6112a88161128d565b81146112b357600080fd5b50565b6000813590506112c58161129f565b92915050565b6000819050919050565b6112de816112cb565b81146112e957600080fd5b50565b6000813590506112fb816112d5565b92915050565b6000806040838503121561131857611317611263565b5b6000611326858286016112b6565b9250506020611337858286016112ec565b9150509250929050565b60008115159050919050565b61135681611341565b82525050565b6000602082019050611371600083018461134d565b92915050565b611380816112cb565b82525050565b600060208201905061139b6000830184611377565b92915050565b6000806000606084860312156113ba576113b9611263565b5b60006113c8868287016112b6565b93505060206113d9868287016112b6565b92505060406113ea868287016112ec565b9150509250925092565b60006020828403121561140a57611409611263565b5b6000611418848285016112b6565b91505092915050565b600060ff82169050919050565b61143781611421565b82525050565b6000602082019050611452600083018461142e565b92915050565b6114618161128d565b82525050565b600060208201905061147c6000830184611458565b92915050565b600080fd5b600080fd5b7f4e487b7100000000000000000000000000000000000000000000000000000000600052604160045260246000fd5b6114c4826111ed565b810181811067ffffffffffffffff821117156114e3576114e261148c565b5b80604052505050565b60006114f6611259565b905061150282826114bb565b919050565b600067ffffffffffffffff8211156115225761152161148c565b5b61152b826111ed565b9050602081019050919050565b82818337600083830152505050565b600061155a61155584611507565b6114ec565b90508281526020810184848401111561157657611575611487565b5b611581848285611538565b509392505050565b600082601f83011261159e5761159d611482565b5b81356115ae848260208601611547565b91505092915050565b6000806000606084860312156115d0576115cf611263565b5b60006115de868287016112b6565b93505060206115ef868287016112ec565b925050604084013567ffffffffffffffff8111156116105761160f611268565b5b61161c86828701611589565b9150509250925092565b6000806040838503121561163d5761163c611263565b5b600061164b858286016112b6565b925050602061165c858286016112b6565b9150509250929050565b7f4e487b7100000000000000000000000000000000000000000000000000000000600052602260045260246000fd5b600060028204905060018216806116ad57607f821691505b6020821081036116c0576116bf611666565b5b50919050565b7f53747564656e7420686173206e6f2061636164656d696320706f696e74730000600082015250565b60006116fc601e836111b2565b9150611707826116c6565b602082019050919050565b6000602082019050818103600083015261172b816116ef565b9050919050565b7f4e487b7100000000000000000000000000000000000000000000000000000000600052601160045260246000fd5b60008160011c9050919050565b6000808291508390505b60018511156117b85780860481111561179457611793611732565b5b60018516156117a35780820291505b80810290506117b185611761565b9450611778565b94509492505050565b6000826117d1576001905061188d565b816117df576000905061188d565b81600181146117f557600281146117ff5761182e565b600191505061188d565b60ff84111561181157611810611732565b5b8360020a91508482111561182857611827611732565b5b5061188d565b5060208310610133831016604e8410600b84101617156118635782820a90508381111561185e5761185d611732565b5b61188d565b611870848484600161176e565b9250905081840481111561188757611886611732565b5b81810290505b9392505050565b600061189f826112cb565b91506118aa83611421565b92506118d77fffffffffffffffffffffffffffffffffffffffffffffffffffffffffffffffff84846117c1565b905092915050565b60006118ea826112cb565b91506118f5836112cb565b9250828202611903816112cb565b9150828204841483151761191a57611919611732565b5b5092915050565b7f41636164656d696320416368696576656d656e74205265776172640000000000600082015250565b6000611957601b836111b2565b915061196282611921565b602082019050919050565b60006040820190506119826000830184611377565b81810360208301526119938161194a565b905092915050565b60006119a6826112cb565b91506119b1836112cb565b92508282019050808211156119c9576119c8611732565b5b92915050565b7f4e487b7100000000000000000000000000000000000000000000000000000000600052601260045260246000fd5b6000611a09826112cb565b9150611a14836112cb565b925082611a2457611a236119cf565b5b828204905092915050565b6000604082019050611a446000830185611377565b8181036020830152611a5681846111fe565b90509392505050565b6000606082019050611a746000830186611458565b611a816020830185611377565b611a8e6040830184611377565b94935050505056fea26469706673582212203d8b82ad238283a07410a75637402d1382f02aa10ea14a1ae13427023c1b21c064736f6c634300081c0033",
  "linkReferences": {},
  "deployedLinkReferences": {}
}